:03000000020800F3
:0C080000787FE4F6D8FD758118020847E7
:0C090B000A0840F924301912027800108C
:0808C8008F188E178D168C1598
:1008D000900000AF82AE83E4FCFDAB18AA17A91606
:1008E000A815D31208FA4011E4FFFE0FBF00010E55
:0908F000BE03F8BFE8F5A380DAAD
:0108F90022DC
:10088C00E4F512F513751401F5A0D2B6D2B7E4F560
:10089C0012F51374082513F8E6F4F5A07F647E00B6
:1008AC007D007C001208C80513E51370020512C305
:0C08BC00940AE5126480948040D980D238
:10080C0002088CE493A3F8E493A34003F68001F26E
:10081C0008DFF48029E493A3F85407240CC8C333ED
:10082C00C4540F4420C8834004F456800146F6DFBC
:10083C00E4800B010204081020408090090BE47E38
:10084C00019360BCA3FF543F30E509541FFEE493B1
:10085C00A360010ECF54C025E060A840B8E493A378
:10086C00FAE493A3F8E493A3C8C582C8CAC583CAA3
:10087C00F0A3C8C582C8CAC583CADFE9DEE780BE5B
:0109170000DF
:1008FA00EB9FF5F0EA9E42F0E99D42F0E89C45F054
:01090A0022CA
:00000001FF
