:0300000002138A5E
:0C138A00787FE4F6D8FD7581210211F88F
:1012D5000A53424335313A20414443204D656173F9
:1012E5007572656D656E742050726F6772616D0AF7
:1012F5000041444320766F6C74616765203D20256D
:10130500302E326620766F6C7473204865782076AF
:0B131500616C75653D307825780D0097
:0E137C00759850438920758DFDD28ED299222E
:06136A00C2B37F327E00D9
:0C137000EF4E6007EF1F70F81E80F522A2
:10134700D2B3D2B5D2B4D2B212136AC2B512136CE9
:10135700D2B312136C20B2FD12136AC2B412136C0B
:02136700AF8055
:011369002261
:101278008053E4FFFEFDFC7806E2FB08E2F908E291
:0B128800FA08E2CBF8D3120D2E404113
:10129300E4780AF208F218F208F2780BE22401F279
:1012A30018E23400F208E2B4E8F018E2B403EB7891
:1012B30006E2FC08E2FD08E2FE08E224FFFFEE344A
:0F12C300FFFEED34FFFDEC34FFFC7806120D3F0B
:0312D20080A622D1
:1011F80012137C7BFF7A1279D5120DEC1213477EFD
:10120800007804EEF208EFF2FD7C00EC1209AB78EE
:1012180000120D3FE4FFFE7DA07C407800E2FB0851
:10122800E2F908E2FA08E2CBF8120800E4FBFA79DE
:101238007F78431209097800120D3F7BFF7A1279F3
:10124800F67800E2FC08E2FD08E2FE08E2FF780911
:10125800120D3F7804E2FF08E2780DCFF208EFF2B2
:10126800120DEC7F647E007D007C00121278808C69
:10080000EC4D6011E8497017ED33EC3304600DE4F2
:10081000FCFFFEFD22E933E8330470F8020A1912E6
:1008200009E458046009E4CC2481500628500902E8
:100830000A23284003020A20C0E0EB4A7044B98032
:1008400006D0E0FB020A0FEF4E701CBD8008EBFFE4
:10085000EAFEE9FD80EBE98DF0A4FEE5F00208E98F
:10086000E9CDF9EAFEEBFFEF89F0A4FCE5F0CE89D3
:10087000F0A42EFFE435F0CD89F0A42DFEE435F090
:100880008067EF4E7005BD80D780C3EF8BF0A4ACBE
:10089000F0EE8BF0A42CFCE435F0F8EF8AF0A42CF9
:1008A000E5F038FCE433CB8DF0A42CFCE5F03BF80C
:1008B000EE8AF0A42CFCE5F038F8E433CF89F0A4FC
:1008C0002CFCE5F038CF3400CE89F0A42FFFE5F002
:1008D0003EFEE433C98DF0A42EFEE5F039CD8AF05A
:1008E000A42FFFE5F03EFEE43DFD33D0E0FB5007D2
:1008F0000BBB000F020A23EC2CFCEF33FFEE33FEA0
:06090000ED33FD0209FBCE
:10090600020A23EC5D046005E859047003020A1923
:100916001209E4580460F6EC4860F2EC7004FDFE3F
:10092600FF22C860DB2481C85009C39860025006C4
:10093600020A209850CAF582E9294B4A7005AB8213
:10094600020A0F75F0007C1A7880C3EF9BEE9AEDD1
:1009560099400DC3EF9BFFEE9AFEED99FDE842F03C
:10096600DC23ACF0D0E0FFD0E0FED0E0FDAB82208F
:10097600E7101BEB60BAEC2CFCEF33FFEE33FEED19
:1009860033FD0209FBE803F830E705C0F075F00017
:10099600EF2FFFEE33FEED33FD40B830E7C280AAFD
:1009A60075F020800E75F010800575F0087D007ECC
:1009B600007F003392D530D503120D20EC33401062
:1009C600EF33FFEE33FEED33FDEC33FCD5F0ED22D5
:0E09D600E5F0247EA2D513CC92E7CDCEFF2211
:100D8A00E5082409F8E205082278063007027809FE
:100D9A00E475F001120D4B020CC82000EB7F2ED235
:100DAA00008018EF540F2490D43440D4FF30040B41
:100DBA00EF24BFB41A0050032461FFE5096002154D
:100DCA0009050CE50C7002050B30070D7806E47571
:100DDA00F001120D4BEF020D0E0213207403D2071D
:100DEA008003E4C207F5087806120D5BE4F509F5FD
:100DFA000BF50CE50960077F20120DC580F5750A11
:100E0A00FFC201C200C202C203C205C206C2081260
:100E1A000D93FF700D3007057F00120DD6AF0CAE93
:100E2A000B22B4255FC2D5C204120D93FF24D0B49D
:100E3A000A00501A75F00A780930D50508B6FF017C
:100E4A0006C6A426F620D5047002D20380D924CF80
:100E5A00B41A00EF5004C2E5D2040210C2D20180D3
:100E6A00C6D20080C0D20280BCD2D580BAD2058058
:100E7A00B47F20120DC52002077401B5090040F1A4
:100E8A00120D8AFF120DC5020DFDD208D2068095F9
:100E9A00120D8AFB120D8AFA120D8AF94A4B700654
:100EAA0079B97A117BFF20022EE509602A7E008E2D
:100EBA0082758300120CE160060EEE650A70F0C2BC
:100ECA00D5EBC0E0EAC0E0E9C0E0EE121122D0E0C2
:100EDA00F9D0E0FAD0E0FB120CC8FF60AAEBC0E040
:100EEA00EAC0E0E9C0E0120DC5D0E02401F9D0E083
:100EFA003400FAD0E0FBE50A0460DCD50AD9808721
:100F0A00D20280A212110560F7E50A700104120AE2
:100F1A002EA90A600DE50A600914F50A1211ACEF50
:100F2A0060F3EA30E702F404C3995077EAF4250A39
:100F3A000430E701E404F50A800D12110560C1EAE4
:100F4A00050A250A120A2EEA781CF230E701E4257E
:100F5A000A04D50A0420050114121122E4C0E01281
:100F6A0011AC781CE2601320E70714F2120DAD8071
:100F7A002204F2D0E014C0E07F00120DADE50A6051
:100F8A0007120DA4150A800B300503120DA4D0E038
:100F9A00020DFDD0E00480C512110560A0E50A0427
:100FAA00120A2E781CEAF2E50A20050260010424DE
:0C0FBA000412112274FF04C0E01211ACFC
:100FC600120DADE50A2005026003120DA4D0E0B5AE
:100FD6000AE87F45120DB7781CE27F2B30E7047FC5
:100FE6002DF404C0E0120DC5D0E075F00A84C0F0FF
:100FF600120DAED0E0120DAE020DFD791080027911
:1010060008C206C2088008D2D5790A8004790AC2C5
:10101600D5E50A047002F50AE4FAFDFEFF120D8A10
:10102600FC7B08200113120D8AFD7B1030000A128A
:101036000D8AFE120D8AFF7B20EC3382D592D550A5
:1010460013C3E43000069FFFE49EFEE42001039DE7
:10105600FDE49CFCE4CBF8C201EC700CCFCECDCC09
:10106600E824F8F870F38017C3EF33FFEE33FEED94
:1010760033FDEC33FCEB33FB994002FB0FD8E9EB75
:10108600300105F8D0E0C448B201C0E00AEC4D4E8C
:101096004F78207B0070C2EAB50A0040BCC0E0125F
:1010A6001124D0F0D0E0200104C4C0E0C4B201C0D5
:1010B600F0120DAED0F0D5F0EB020DFD120D640E60
:1010C6009A531001580E6B4C0E674210054F100DC7
:1010D60044100D490E80431013550F44460FA24588
:1010E6000F0E4711D9500E6F2D0E732E0E962B0E26
:1010F60077230E942011C22A0E2F4800000E8EE58B
:101106000AB4FF03750A06120D8AFC120D8AFD1237
:101116000D8AFE120D8AFF7815020A5D790AA2D59C
:10112600200314300509B910020404B9080104A209
:10113600D52006025001042002689202B50900502B
:1011460034C0E07F203003197F30A2027206720598
:10115600500F12117BC202C206C205C2087F308040
:101166000F300503E9C0E0120DC5300503D0E0F9E4
:10117600D0E0B509CC3005177F30B9100C120DC57B
:101186007F583004077F788003B90803120DC530F5
:1011960002057F2D020DC57F202008F87F2B200633
:1011A600F322920280CF7F00B4070050052415F881
:1011B600E2FF22286E756C6C2900D201120D8A306E
:1011C60001F8C201780930D50108F6020E2F2D501C
:1011D600434958120D8A2403B405004001E49011D6
:1011E600D493120DB6743A120DB6D20375090402E1
:0211F6001001E6
:1009E400E9D2E7C933E833F892D5EDD2E7CD33EC59
:0709F40033FC5002B2D522D2
:1009FB00EC30E7100FBF000C0EBE00080DBD00045D
:100A0B000BEB6014A2D5EB13FCED92E7FD2274FF08
:100A1B00FCFDFEFF22E480F8A2D574FF13FC7D8061
:030A2B00E480EF75
:100A2E00F920E72824F950037907E4F42402FB188F
:100A3E00DBFDE224FB5014E9600DE4F218E204F24F
:0F0A4E00B40A08E4F2D9F57401F20A22C2D522E3
:100A5D00ED33EC3392D5FA602AB4FF33EDC2E77B68
:100A6D00FF60067A0A7982E4227A0A798B20D5040E
:100A7D007A0A7986224E614E002B494E46002D4949
:100A8D004E4600E47A08F208DAFC7B00740722E88F
:100A9D00C0E0ECC0E0EDC0E0EEC0E0EFC0E0EA7514
:100AAD00F010A4CAABF075F04DA42BFBE435F0FCAF
:100ABD00EA2410FAEB34C5FBEC34D9FCEDC2E7FFA8
:100ACD0075F056A4F42411C5F0F434C58FF0A42AA2
:100ADD00E5F03BE43CF220E714120C88D0E0FFD0A7
:100AED00E0FED0E0FDD0E0FC1209098014F4041200
:100AFD000C88D0E0FFD0E0FED0E0FDD0E0FC120885
:100B0D0000D0E0F8E2FAEDD2E7CD33EC332482FBEE
:100B1D00E4C3CF33CFCE33CECD33CD33DBF37B0731
:100B2D0075F00A846004F2081B0AE5F0F2088FF0F4
:100B3D00740AA4FFACF08EF0740AA42CFEACF05035
:100B4D00010C8DF0740AA42CFDE435F0F208DBDE07
:030B5D00740722F8
:100B6000020A19E86480F8E933E83360110460F0A0
:100B7000ED33EC337009E8FCE9FDEAFEEBFF2204FB
:100B800060DED3EB9FEA9EE99DE8C2E78CF0C2F7F6
:100B900095F0400CE8CCF8E9CDF9EACEFAEBCFFBC2
:100BA0001209E485D0F05804700320D5B3E804702E
:100BB000075002B2D5020A2392D5EC0460F7E4CCC8
:100BC000C0E0C398F8603B94186008400DD0E0FB8B
:100BD0000209FBE4FBFAC9FC8028E830E406E4C91A
:100BE000FBE4CAFCE830E305E4C9CACBFCE85407DF
:100BF0006010F8C3E913F9EA13FAEB13FBEC13FCEA
:100C0000D8F130F52FC3E49CFCEF9BFFEE9AFEED8C
:100C100099FDD0E0FBEF4E4D4C701222DB03020A2F
:100C200020EC2CFCEF33FFEE33FEED33FDED30E72F
:100C3000EB0209FBEF2BFFEE3AFEED39FDD0E0FBB6
:100C400050130BBB0003020A23ED13FDEE13FEEF5E
:080C500013FFEC13FC0209FB89
:100C58003F8000004120000042C80000447A0000A4
:100C6800461C400047C35000497424004B18968026
:100C78004CBEBC205A0E1BCA6753C21C749DC5AE1D
:100C8800FB60065407601C2323120CB6EB54386033
:100C980009120CA2120CB1120800ECF8EDF9EEFAE8
:100CA800EFCB22EB120CB180F1543803241C900CCA
:100CB80058FE93FC0EEE93FD0EEE930ECE93FF229C
:100CC800BB010689828A83E0225002E722BBFE022A
:090CD800E32289828A83E493225D
:100CE100BB010CE58229F582E5833AF583E02250C8
:100CF10006E92582F8E622BBFE06E92582F8E22212
:0D0D0100E58229F582E5833AF583E493222B
:100D0E00BB010689828A83F0225002F722BBFE01C4
:020D1E00F322BE
:0E0D2000C3E49FFFE49EFEE49DFDE49CFC22E4
:100D2E00EB9FF5F0EA9E42F0E99D42F0E89C45F01B
:010D3E002292
:0C0D3F00ECF208EDF208EEF208EFF222F0
:100D4B00FAE2FB0808E2F925F0F218E2CA3AF222BD
:090D5B00EBF208EAF208E9F222C9
:100D6400D083D082F8E4937012740193700DA3A31E
:100D740093F8740193F5828883E473740293686032
:060D8400EFA3A3A380DF32
:10132000EFB40A07740D12132B740A309811A899A0
:10133000B8130CC2983098FDA899C298B811F6302D
:0713400099FDC299F5992205
:00000001FF
