:03000000020E4BA2
:0C0E4B00787FE4F6D8FD758147020C6644
:100E0800E4FDFCC3ED9FEC9E5015E4FBFA0BBB0020
:0F0E1800010AEB64704A70F50DBD00010C80E417
:010E270022A8
:0E0E3D00D2947F057E00120E08C294020E08A9
:100D7100A907E954F0FF3395E0FEEF7804CEA2E72E
:100D810013CE13D8F8F590C295120E3DE9540FF524
:060D910090C295020E3D28
:100D9700A907E954F0FF3395E0FEEF7804CEA2E708
:100DA70013CE13D8F8F590D295120E3DE9540FF5EE
:060DB70090D295020E3DF2
:060CEF008B398A3A893BB3
:100CF500E4F53CF53DAB39AA3AA93B853D82853CF7
:100D050083120B5CFFFD3395E04D600D120D9705C9
:090D15003DE53D70E0053C80DC89
:010D1E0022B2
:100CB6008F348D358B368A378938EF3395E04F7010
:100CC60008E535540F44808013AF34EF3395E0FECA
:100CD600EF64014E700AE535540F44C0FF120D71E2
:090CE600AB36AA37A938020CEF65
:100D1F008F088D09EF3395E04F7008E509540F44A4
:100D2F00808013AF08EF3395E0FEEF64014E700A39
:0B0D3F00E509540F44C0FF120D7122A3
:100DE3007F147E00120E087F02120D717F28120DF0
:100DF300717F0C120D717F06120D717F01120D713F
:050E03007F80020D716B
:100E28004144432050726F6772616D00202534641D
:050E3800206D562000B2
:0A0C0D00C2B37F327E007D007C0040
:100C17008F378E368D358C34E4FFFEFDFCAB37AA5B
:0B0C270036A935A834D3120B9B4033D4
:100C3200E4F538F539F538F5390539E53970020545
:100C420038B4E8F5E538B403F0E53724FFF537E5C5
:100C52003634FFF536E53534FFF535E53434FFF546
:010C6200345D
:030C630080BA2232
:100DBD007580FFD2B3D2B5D2B4D2B2120C0DC2B57A
:100DCD00120C0FD2B3120C0F20B2FD120C0DC2B4C7
:050DDD00120C0FAF80B5
:010DE20022EE
:100C6600120DE37BFF7A0E7928E4FDFF120CB61213
:100C76000DBD7532008F33AE327C007D13120B89A9
:100C86008E328F337537FF75380E75393485323AA3
:100C960085333B7B007A00792212085C7B007A0060
:100CA6007922E4FD7F01120CB67F0A120C1180BF77
:100B5C00BB010CE58229F582E5833AF583E022504E
:100B6C0006E92582F8E622BBFE06E92582F8E22298
:0D0B7C00E58229F582E5833AF583E49322B2
:100B8900EF8DF0A4A8F0CF8CF0A428CE8DF0A42E80
:020B9900FE223A
:100B9B00EB9FF5F0EA9E42F0E99D42F0E89C45F0B0
:010BAB002227
:10080000E5432437F8E60543227834300702783789
:10081000E475F001120BD7020BAC2000EB7F2ED257
:10082000008018EF540F2490D43440D4FF30040BD0
:10083000EF24BFB41A0050032461FFE544600215A1
:10084000440547E5477002054630070D7834E475E6
:10085000F001120BD7EF020BC5020D4A7403D20749
:100860008003E4C207F5438B348A358936E4F544C6
:10087000F546F547E54460077F2012083B80F57593
:1008800045FFC201C200C202C203C205C206C208BD
:10089000120809FF700D3007057F0012084CAF47A2
:1008A000AE4622B4255FC2D5C204120809FF24D087
:1008B000B40A00501A75F00A784430D50508B6FF1E
:1008C0000106C6A426F620D5047002D20380D924DE
:1008D000CFB41A00EF5004C2E5D204020A4CD20190
:1008E00080C6D20080C0D20280BCD2D580BAD205E8
:1008F00080B47F2012083B2002077401B5440040F9
:10090000F1120800FF12083B020874D208D20680D8
:1009100095120800FB120800FA120800F94A4B7001
:1009200006791D7A0B7BFF20022EE544602A7E00AB
:100930008E82758300120B5C60060EEE654570F0CA
:10094000C2D5EBC0E0EAC0E0E9C0E0EE120A93D005
:10095000E0F9D0E0FAD0E0FB120BACFF60AAEBC0EC
:10096000E0EAC0E0E9C0E012083BD0E02401F9D0A1
:10097000E03400FAD0E0FBE5450460DCD545D980E1
:10098000877BFF7A0A798FD202809C791080027966
:1009900008C206C2088008D2D5790A8004790AC242
:1009A000D5E545047002F545E4FAFDFEFF120800A6
:1009B000FC7B08200113120800FD7B1030000A1296
:1009C0000800FE120800FF7B20EC3382D592D55040
:1009D00013C3E43000069FFFE49EFEE42001039D64
:1009E000FDE49CFCE4CBF8C201EC700CCFCECDCC86
:1009F000E824F8F870F38017C3EF33FFEE33FEED11
:100A000033FDEC33FCEB33FB994002FB0FD8E9EBF1
:100A1000300105F8D0E0C448B201C0E00AEC4D4E08
:100A20004F78207B0070C2EAB5450040BCC0E012A0
:100A30000A95D0F0D0E0200104C4C0E0C4B201C0E7
:100A4000F0120824D0F0D5F0EB020874120BE7097D
:100A50001153098B5808E24C08DE42098F4F099761
:0F0A60004409974908F743099D550981460981C3
:100A6F00450981470B3D5008E62D08EA2E090D2B4D
:100A7F0008EE23090B200B262A08A64800000905BB
:100A8F003F3F3F00790AA2D5200314300509B91062
:100A9F00020404B9080104A2D52006025001042063
:100AAF0002689202B544005034C0E07F2030031931
:100ABF007F30A20272067205500F120AECC202C2F8
:100ACF0006C205C2087F30800F300503E9C0E0126F
:100ADF00083B300503D0E0F9D0E0B544CC30051722
:100AEF007F30B9100C12083B7F583004077F788095
:100AFF0003B9080312083B3002057F2D02083B7F24
:100B0F00202008F87F2B2006F322920280CF286E38
:100B1F00756C6C2900D2011208003001F8C20178FF
:100B2F004430D50108F60208A62D50434958120843
:100B3F00002403B405004001E4900B389312082CF5
:0D0B4F00743A12082CD20375440402098B7D
:100BAC00BB010689828A83E0225002E722BBFE0247
:090BBC00E32289828A83E493227A
:100BC500BB010689828A83F0225002F722BBFE010F
:020BD500F32209
:100BD700FAE6FB0808E6F925F0F618E6CA3AF6221F
:100BE700D083D082F8E4937012740193700DA3A39D
:100BF70093F8740193F5828883E4737402936860B1
:060C0700EFA3A3A380DFB0
:100D4A00EFB40A07740D120D55740A309811A89958
:100D5A00B8130CC2983098FDA899C298B811F63009
:070D6A0099FDC299F59922E1
:00000001FF
