:030000000210A249
:0C10A200787FE4F6D8FD7581DE0210E9CD
:100EB00047534D20496E697469616C697A696E6740
:100EC0000041540037383838313431303934005328
:100ED000656E64696E67204D534700373838383186
:100EE00034313039342E0068656C6C6F2066726F57
:100EF0006D204D6963726F456D6265646465642140
:100F000021004D53472073656E7400446F6E650079
:100F1000415445300D004F4B004572726F7220698D
:100F20006E20626567696E0054657874204D6F6449
:100F3000650041542B434D47463D310D0041542B34
:100F4000435343533D2247534D220D0041542B43FD
:100F50004D47533D222573220D0041544425733BD8
:0A0F60000D004154480D000D0A0079
:0714FD00010E0002110000C6
:10129600E4F50FF510FE7F23FDFB7A00793B120B78
:1012A6009F12146C1214F112150D7BFF7A0E79B091
:1012B600E4FD7F011212E57FB87E0B121491121421
:1012C600C67BFF7A0E79C1E4FD7F011212E512108A
:0F12D600151214C67BFF7A0E79C41213D280FE54
:101015007FC01214207BFF7A0F79101213A97FF479
:101025007E011214917527FF75280F7529167B000F
:101035007A00797B12112EEA494B6014120DCE7E8F
:10104500007F327D007B007A00797B120B9F800B3D
:101055007BFF7A0F791912134E80B57FE87E031254
:1010650014911214C67BFF7A0F7928E4FD7F0112D3
:1010750012E57FC01214207BFF7A0F79321213A973
:10108500120DCE7FE87E031214917BFF7A0F793D16
:0D1095001213A9120DCE7FE87E0302149104
:060F6A008B088A09890AC8
:100F7000E4F50FF510752AFF752B0F752C4C8508BD
:100F80002D85092E850A2FFB7A0079AD12085C7B2E
:100F9000007A0079AD1213A97FC87E00121491AFB8
:100FA00010747B2FF8E6FF3395E0FEEF643E4E7041
:100FB00027F50FF510FB7A00797B1214B17D007BC9
:100FC000007A00797B120B9FAB0BAA0CA90D1213B0
:100FD000A97F1A121505800A0510E51070C1050FCA
:100FE00080BD7F2C7E01121491E4F50FF510FB7A81
:100FF00000797B1214B17D007B007A00797B120BA3
:101000009F7B007A0079AD1214B17D007B007A00DD
:0510100079AD020B9F09
:0613D2008B248A25892608
:1013D800752AFF752B0F752C5A8B2D8A2E892F7B1A
:1013E800007A0079CB12085C7B007A0079CB021373
:0113F800A94B
:0C14E5001214C67BFF7A0F79620213A973
:100DCE00E4F526F527F528F529F52CF52DAE26AFF9
:100DDE0027E4FCFD7B607AEAF9F8D3120B89500305
:100DEE00020EAF7B007A00797B1214B18E2C8F2D00
:100DFE00E52D452C7003020E9A7F027E001214918F
:100E0E000527E527700205267B007A00797B1214F0
:100E1E00B1EF652D7003EE652C7071F524F525C3C9
:100E2E00E525952DE52C6480F8E5246480985057CF
:100E3E00782A7C007D007B007A00792B7E007F0172
:100E4E00120D45747B2525F8E6F52B7531FF7532AD
:100E5E000F7533677534007535027B007A00792A79
:100E6E00121227EF60170529E529AE287002052812
:100E7E001464024E70071211B0E4F50E220525E53A
:100E8E0025709C05248098E4F528F5297F017E00C5
:100E9E001214910527E5276003020DDB0526020DCE
:010EAE00DB68
:010EAF002220
:1011B000E4F52EF52FF50FF510AF10747B2FF8E640
:1011C000640D600AAF10747B2FF8E6B40A0A0510AC
:1011D000E51070E5050F80E17FC0802EAF10747BB5
:1011E0002FF8E6640D6028AF10747B2FF8E6FF122D
:1011F00014460510E5107002050F052FE52F70024B
:10120000052E640F452E70D47F8012142080CDE40B
:10121000F50FF510FB7A00797B1214B17D007B008D
:071220007A00797B020B9FAD
:0300230002131EA7
:10131E00C0E0C0D075D000C000C007309819C2AF71
:10132E00AF10747B2FF8A6990510E5107002050F0B
:10133E00750E01C298D2AFD007D000D0D0D0E03217
:10149100E4FDFCC3ED9FEC9E5015E4FBFA0BBB0091
:0F14A100010AEB64704A70F50DBD00010C80E488
:0114B0002219
:0E14D700D2947F057E00121491C294021491EB
:10142000A907E954F0FF3395E0FEEF7804CEA2E778
:1014300013CE13D8F8F590C2951214D7E9540FF5CE
:0614400090C2950214D7D2
:10144600A907E954F0FF3395E0FEEF7804CEA2E752
:1014560013CE13D8F8F590D2951214D7E9540FF598
:0614660090D2950214D79C
:06134E008B298A2A892B7D
:10135400E4F52CF52DAB29AA2AA92B852D82852C01
:1013640083120B5CFFFD3395E04D600D12144605AE
:091374002DE52D70E0052C80DC54
:01137D00224D
:1012E5008F248D258B268A278928EF3395E04F702B
:1012F50008E525540F44808013AF24EF3395E0FEB5
:10130500EF64014E700AE525540F44C0FF12142006
:09131500AB26AA27A92802134EF9
:10137E008F138D14EF3395E04F7008E514540F441E
:10138E00808013AF13EF3395E0FEEF64014E700AC9
:0B139E00E514540F44C0FF121420227D
:1014C6007F011214207F057E001214917F80021482
:0114D60020F5
:10146C007F147E001214917F021214207F28121414
:10147C00207F0C1214207F061214207F01121420DE
:05148C007F8002142026
:05150D00D2AFD2AC22B8
:0C14F100758920758DFD759850D28E22F3
:081505008F993099FDC2992273
:0613A9008B278A28892928
:1013AF00E4FDFCAB27AA28A9298D828C83120B5C44
:1013BF00FFFB3395E04B600A1215050DBD00010CC4
:0213CF0080E1BB
:0113D10022F9
:1010AE00021296E493A3F8E493A34003F68001F2B0
:1010BE0008DFF48029E493A3F85407240CC8C33343
:1010CE00C4540F4420C8834004F456800146F6DF12
:1010DE00E4800B01020408102040809014FDE47E91
:1010EE00019360BCA3FF543F30E509541FFEE49307
:1010FE00A360010ECF54C025E060A840B8E493A3CE
:10110E00FAE493A3F8E493A3C8C582C8CAC583CAF8
:10111E00F0A3C8C582C8CAC583CADFE9DEE780BEB0
:0115040000E6
:100B5C00BB010CE58229F582E5833AF583E022504E
:100B6C0006E92582F8E622BBFE06E92582F8E22298
:0D0B7C00E58229F582E5833AF583E49322B2
:100B8900EB9FF5F0EA9E42F0E99D42F0EC6480C8E3
:060B990064809845F02283
:10080000E536242AF8E60536227827300702782ACA
:10081000E475F001120D98020D6D2000EB7F2ED2D1
:10082000008018EF540F2490D43440D4FF30040BD0
:10083000EF24BFB41A0050032461FFE537600215AE
:1008400037053AE53A7002053930070D7827E47527
:10085000F001120D98EF020D860213F97403D2070E
:100860008003E4C207F5368B278A288929E4F53707
:10087000F539F53AE53760077F2012083B80F575BA
:1008800038FFC201C200C202C203C205C206C208CA
:10089000120809FF700D3007057F0012084CAF3AAF
:1008A000AE3922B4255FC2D5C204120809FF24D094
:1008B000B40A00501A75F00A783730D50508B6FF2B
:1008C0000106C6A426F620D5047002D20380D924DE
:1008D000CFB41A00EF5004C2E5D204020A4CD20190
:1008E00080C6D20080C0D20280BCD2D580BAD205E8
:1008F00080B47F2012083B2002077401B537004006
:10090000F1120800FF12083B020874D208D20680D8
:1009100095120800FB120800FA120800F94A4B7001
:1009200006791D7A0B7BFF20022EE537602A7E00B8
:100930008E82758300120B5C60060EEE653870F0D7
:10094000C2D5EBC0E0EAC0E0E9C0E0EE120A93D005
:10095000E0F9D0E0FAD0E0FB120D6DFF60AAEBC029
:10096000E0EAC0E0E9C0E012083BD0E02401F9D0A1
:10097000E03400FAD0E0FBE5380460DCD538D980FB
:10098000877BFF7A0A798FD202809C791080027966
:1009900008C206C2088008D2D5790A8004790AC242
:1009A000D5E538047002F538E4FAFDFEFF120800C0
:1009B000FC7B08200113120800FD7B1030000A1296
:1009C0000800FE120800FF7B20EC3382D592D55040
:1009D00013C3E43000069FFFE49EFEE42001039D64
:1009E000FDE49CFCE4CBF8C201EC700CCFCECDCC86
:1009F000E824F8F870F38017C3EF33FFEE33FEED11
:100A000033FDEC33FCEB33FB994002FB0FD8E9EBF1
:100A1000300105F8D0E0C448B201C0E00AEC4D4E08
:100A20004F78207B0070C2EAB5380040BCC0E012AD
:100A30000A95D0F0D0E0200104C4C0E0C4B201C0E7
:100A4000F0120824D0F0D5F0EB020874120DA809BA
:100A50001153098B5808E24C08DE42098F4F099761
:0F0A60004409974908F743099D550981460981C3
:100A6F00450981470B3D5008E62D08EA2E090D2B4D
:100A7F0008EE23090B200B262A08A64800000905BB
:100A8F003F3F3F00790AA2D5200314300509B91062
:100A9F00020404B9080104A2D52006025001042063
:100AAF0002689202B537005034C0E07F203003193E
:100ABF007F30A20272067205500F120AECC202C2F8
:100ACF0006C205C2087F30800F300503E9C0E0126F
:100ADF00083B300503D0E0F9D0E0B537CC3005172F
:100AEF007F30B9100C12083B7F583004077F788095
:100AFF0003B9080312083B3002057F2D02083B7F24
:100B0F00202008F87F2B2006F322920280CF286E38
:100B1F00756C6C2900D2011208003001F8C20178FF
:100B2F003730D50108F60208A62D50434958120850
:100B3F00002403B405004001E4900B389312082CF5
:0D0B4F00743A12082CD20375370402098B8A
:101227008B2E8A2F8930AB31AA32A933120D6DFE6E
:10123700AB2EAA2FA930120D6DFF6E702BEF600D2C
:10124700E53515357002153414453470037F0022D7
:1012570074012530F530E4352FF52F74012533F56A
:1012670033E43532F53280BEAB2EAA2FA930120DEA
:101277006DFDD3EE6480F8ED64809840037F012212
:0F128700AB31AA32A933120D6DFFC3ED9FFF22C9
:1014B100E4FFFE120D6D600C0FEF70010E09E97073
:0514C100F20A80EF2299
:10112E008B248A258926AB27AA28A929120D6D6042
:10113E0063AB24AA25A926120D6D605F85272A852B
:10114E00282B85292C8B2D8A2E892FAB2AAA2BA9E9
:10115E002C120D6DFF6023AB2DAA2EA92F120D6D33
:10116E006F701704252CF52CE4352BF52B74012507
:10117E002FF52FE4352EF52E80D1AB2AAA2BA92CD4
:10118E00120D6D7002800D74012526F526E43525AD
:10119E00F525809DAB24AA25A926227B007A00790D
:0211AE0000221D
:100B9F00EF4E6012EF60010EEDBB010B89828A836D
:100BAF00F0A3DFFCDEFA2289F05007F709DFFCA97A
:0C0BBF00F022BBFEFCF309DFFCA9F022D1
:100BCB00E709F608DFFA807BE9D39850F3E92FF9B0
:100BDB00E82FF819E718F6DFFA8068E709F208DF63
:100BEB00FA806080E388828C83E709F0A3DFFA80C8
:100BFB0052E309F608DFFA804AE9D398500EE92F41
:100C0B00F9E82FF819E318F2DFFA8037E309F20855
:100C1B00DFFA802F88828C83E309F0A3DFFA80232D
:100C2B0089828A83E0A3F608DFFA801789828A8398
:100C3B00E493A3F208DFF9800A89828A83E0A3F2A6
:100C4B0008DFFA020CDD80B180F980A580C680DC5C
:100C5B0080F180738010808380E98087808780D9C2
:100C6B0080E180BC8073D3E998EA9C5039E92FF579
:100C7B0082EA3BF583E82FF8EC3BFC0582D5820238
:100C8B0015831582E493C8C582C8CCC583CC058275
:100C9B00D5820215831582F0C8C582C8CCC583CC1A
:100CAB00DFD9DED7802E89828A83ECFAE493A3C83E
:100CBB00C582C8CCC583CCF0A3C8C582C8CCC583BC
:100CCB00CCDFE9DEE7800D89828A83E493A3F60803
:100CDB00DFF9ECFAA9F0EDFB22D3E998EA9C503846
:100CEB00E92FF582EA3BF583E82FF8EC3BFC058214
:100CFB00D5820215831582E0C8C582C8CCC583CCCA
:100D0B000582D5820215831582F0C8C582C8CCC571
:100D1B0083CCDFDADED880BC89828A83ECFAE0A34D
:100D2B00C8C582C8CCC583CCF0A3C8C582C8CCC506
:100D3B0083CCDFEADEE8809C809888F08E83EF60BE
:100D4B00010E4E608DED2402B404005085F582EB4C
:100D5B002402B4040050E123234582AB8323900C7F
:020D6B005173C2
:100D6D00BB010689828A83E0225002E722BBFE0284
:090D7D00E32289828A83E49322B7
:100D8600BB010689828A83F0225002F722BBFE014C
:020D9600F32246
:100D9800FAE6FB0808E6F925F0F618E6CA3AF6225C
:100DA800D083D082F8E4937012740193700DA3A3DA
:100DB80093F8740193F5828883E4737402936860EE
:060DC800EFA3A3A380DFEE
:1013F900EFB40A07740D121404740A309811A899ED
:10140900B8130CC2983098FDA899C298B811F63053
:0714190099FDC299F599222B
:00000001FF
