:03000000020923CF
:0C092300787FE4F6D8FD75812102096A96
:0F0B8E004B65797061640000FE00FD00FB00F70D
:100B7B001008303336233134373032353824414284
:020B8B004344E1
:100B3D00E4FDFCC3ED9FEC9E5015E4FBFA0BBB00EE
:0F0B4D00010AEB64704A70F50DBD00010C80E4E5
:010B5C002276
:0E0B9D00D2947F057E00120B3DC294020B3DE8
:100ACC00A907E954F0FF3395E0FEEF7804CEA2E7D6
:100ADC0013CE13D8F8F590C295120B9DE9540FF56F
:060AEC0090C295020B9D73
:100AF200A907E954F0FF3395E0FEEF7804CEA2E7B0
:100B020013CE13D8F8F590D295120B9DE9540FF538
:060B120090D295020B9D3C
:060A49008B1D8A1E891FAF
:100A4F00E4F520F521AB1DAA1EA91F852182852063
:100A5F00831208F6FFFD3395E04D600D120AF20583
:090A6F0021E52170E0052080DC86
:010A7800225B
:100A10008F188D198B1A8A1B891CEF3395E04F7044
:100A200008E519540F44808013AF18EF3395E0FEAA
:100A3000EF64014E700AE519540F44C0FF120ACC4E
:090A4000AB1AAA1BA91C020A4909
:100A79008F198D1AEF3395E04F7008E51A540F441A
:100A8900808013AF19EF3395E0FEEF64014E700AD1
:0B0A9900E51A540F44C0FF120ACC22E3
:100B18007F147E00120B3D7F02120ACC7F28120A36
:100B2800CC7F0C120ACC7F06120ACC7F01120ACCA9
:050B38007F80020ACCE1
:040AA400AB07AA06EC
:100AA800E4F583F582ED20E40AAF82EB2F2408F801
:100AB800E6FF22ECC313FCED13FDA3E582640445B5
:030AC8008370E256
:010ACB002208
:1009AF00781A7C007D007BFF7A0B79957E007F089B
:1009BF001208D07580F07580F0E4F518F519E51977
:1009CF0025E0241AF808E6F5807F027E00120B3D21
:1009DF00AF80AD077C00ED54F064F06011AE18E508
:1009EF00197802C333CE33CED8F9FF020AA4051902
:1009FF00E51970020518C39404E518940040BF80F0
:010A0F00B531
:0E0BAB008F18E4FD7F01120A79AF18020AF2DA
:100B5D00120B187BFF7A0B798EE4FDFF120A10122F
:0E0B6D0009AF120BAB7F647E00120B3D80F1CE
:10092F00020B5DE493A3F8E493A34003F68001F276
:10093F0008DFF48029E493A3F85407240CC8C333C9
:10094F00C4540F4420C8834004F456800146F6DF98
:10095F00E4800B0102040810204080900B7BE47EA2
:10096F00019360BCA3FF543F30E509541FFEE4938D
:10097F00A360010ECF54C025E060A840B8E493A354
:10098F00FAE493A3F8E493A3C8C582C8CAC583CA7F
:10099F00F0A3C8C582C8CAC583CADFE9DEE780BE37
:010B8D000067
:10080000E709F608DFFA8046E709F208DFFA803EDA
:1008100088828C83E709F0A3DFFA8032E309F608C7
:10082000DFFA8078E309F208DFFA807088828C832F
:10083000E309F0A3DFFA806489828A83E0A3F608E3
:10084000DFFA805889828A83E0A3F208DFFA804CBD
:1008500080D280FA80C680D4806980F28033801094
:1008600080A680EA809A80A880DA80E280CA8033FD
:1008700089828A83ECFAE493A3C8C582C8CCC58375
:10088000CCF0A3C8C582C8CCC583CCDFE9DEE78045
:100890000D89828A83E493A3F608DFF9ECFAA9F0C4
:1008A000EDFB2289828A83ECFAE0A3C8C582C8CC1A
:1008B000C583CCF0A3C8C582C8CCC583CCDFEADE33
:1008C000E880DB89828A83E493A3F208DFF980CC95
:1008D00088F0EF60010E4E60C388F0ED2402B4048E
:1008E0000050B9F582EB2402B4040050AF23234535
:0608F00082239008507302
:1008F600BB010CE58229F582E5833AF583E02250B7
:1009060006E92582F8E622BBFE06E92582F8E22200
:0D091600E58229F582E5833AF583E493221A
:00000001FF
