:0300000002098B67
:0C098B00787FE4F6D8FD75811102085B4E
:100963004D6963726F456D626564646564004D69CA
:0A09730063726F35312D50524F00B2
:10092300E4FDFCC3ED9FEC9E5015E4FBFA0BBB000A
:0F093300010AEB64704A70F50DBD00010C80E401
:010942002292
:0E097D00D2947F057E00120923C29402092342
:1008B200A907E954F0FF3395E0FEEF7804CEA2E7F2
:1008C20013CE13D8F8F590C29512097DE9540FF5AD
:0608D20090C29502097DB1
:1008D800A907E954F0FF3395E0FEEF7804CEA2E7CC
:1008E80013CE13D8F8F590D29512097DE9540FF577
:0608F80090D29502097D7B
:060887008B0D8A0E890FA3
:10088D00E4F510F511AB0DAA0EA90F851182851097
:10089D008312082EFF600D1208D80511E51170E5C1
:0408AD00051080E1D1
:0108B1002224
:100800008F088D098B0A8A0B890CE5087008E509A9
:10081000540F4480800BE508B4010AE509540F44E5
:0E082000C0FF1208B2AB0AAA0BA90C0208878F
:100943008F088D09E5087008E509540F4480800B72
:10095300E508B4010AE509540F44C0FF1208B222A6
:1008FE007F147E001209237F021208B27F2812088D
:10090E00B27F0C1208B27F061208B27F011208B233
:05091E007F800208B219
:10085B001208FEE4FDFF1209437BFF7A0979637DE1
:10086B0001E4FF120800E4FD7F011209437BFF7ACC
:0C087B000979717D017F0112080080FEE8
:10082E00BB010CE58229F582E5833AF583E022507F
:10083E0006E92582F8E622BBFE06E92582F8E222C9
:0D084E00E58229F582E5833AF583E49322E3
:00000001FF
