:0300000002087B78
:0C087B00787FE4F6D8FD75810D02084F6F
:100800008F0B8E0A8D098C08E4FFFEFDFCAB0BAA52
:0B0810000AA909A808D312086A4033A7
:10081B00E4F50CF50DF50CF50D050DE50D70020568
:10082B000CB4F4F5E50CB401F0E50B24FFF50BE586
:10083B000A34FFF50AE50934FFF509E50834FFF53D
:01084B0008A4
:03084C0080BA224D
:10084F00E4F5A07F64FEFDFC12080075A0FF7F6435
:0B085F007E007D007C0012080080E598
:10086A00EB9FF5F0EA9E42F0E99D42F0E89C45F0E4
:01087A00225B
:00000001FF
