:03000000020800F3
:0C080000787FE4F6D8FD758113020847EC
:0E092C0002100000080800080001000200048C
:03001300020911CE
:10091100C0E0E511640145107006F510F51180067F
:0B092100751000751101C28BD0E03290
:1008D30025E02408F808E6F4F5A0AF13AE121208D9
:0808E300EB75A00FAF13AE127C
:1008EB00E4FDFCC3ED9FEE6480F8EC64809850153A
:1008FB00E4FBFA0BBB00010AEB64324A70F50DBD49
:05090B0000010C80DE7C
:0109100022C4
:10088C00751200751305D28AD2AAD2AFE5114510A4
:10089C006019E4F583F582D3E5829403E583940033
:1008AC0050EAAF82EF1208D3A380ECE4F583F58213
:1008BC00D3E5829403E583940050D1AF82C37403D3
:0708CC009F1208D3A380E98D
:10080C0002088CE493A3F8E493A34003F68001F26E
:10081C0008DFF48029E493A3F85407240CC8C333ED
:10082C00C4540F4420C8834004F456800146F6DFBC
:10083C00E4800B010204081020408090092CE47E17
:10084C00019360BCA3FF543F30E509541FFEE493B1
:10085C00A360010ECF54C025E060A840B8E493A378
:10086C00FAE493A3F8E493A3C8C582C8CAC583CAA3
:10087C00F0A3C8C582C8CAC583CADFE9DEE780BE5B
:01093A0000BC
:00000001FF
