:0300000002096F83
:0C096F00787FE4F6D8FD75812102090FA5
:100949002057656C636F6D6520746F2038303531C1
:08095900204C6162730A0D00DD
:0E096100759850438920758DFDD28ED2992253
:08097B008F993099FDC2992209
:070983003098FDAF99C29806
:01098A00224A
:10090F0078087C007D007BFF7A0979497E007F188B
:10091F001208D0E4F520F521FB7A0079081209615D
:10092F001208F6FF600C12097B740129F9E43AFAF8
:0A093F0080EE12098312097B80F894
:10080000E709F608DFFA8046E709F208DFFA803EDA
:1008100088828C83E709F0A3DFFA8032E309F608C7
:10082000DFFA8078E309F208DFFA807088828C832F
:10083000E309F0A3DFFA806489828A83E0A3F608E3
:10084000DFFA805889828A83E0A3F208DFFA804CBD
:1008500080D280FA80C680D4806980F28033801094
:1008600080A680EA809A80A880DA80E280CA8033FD
:1008700089828A83ECFAE493A3C8C582C8CCC58375
:10088000CCF0A3C8C582C8CCC583CCDFE9DEE78045
:100890000D89828A83E493A3F608DFF9ECFAA9F0C4
:1008A000EDFB2289828A83ECFAE0A3C8C582C8CC1A
:1008B000C583CCF0A3C8C582C8CCC583CCDFEADE33
:1008C000E880DB89828A83E493A3F208DFF980CC95
:1008D00088F0EF60010E4E60C388F0ED2402B4048E
:1008E0000050B9F582EB2402B4040050AF23234535
:0608F00082239008507302
:1008F600BB010689828A83E0225002E722BBFE0200
:09090600E32289828A83E4932232
:00000001FF
